{
  "_format": "hh-sol-artifact-1",
  "contractName": "DocumentRegistry",
  "sourceName": "contracts/DocumentRegistry.sol",
  "abi": [
    {
      "anonymous": false,
      "inputs": [
        {
          "indexed": true,
          "internalType": "bytes32",
          "name": "documentHash",
          "type": "bytes32"
        },
        {
          "indexed": true,
          "internalType": "address",
          "name": "owner",
          "type": "address"
        },
        {
          "indexed": true,
          "internalType": "address",
          "name": "grantedTo",
          "type": "address"
        }
      ],
      "name": "AccessGranted",
      "type": "event"
    },
    {
      "anonymous": false,
      "inputs": [
        {
          "indexed": true,
          "internalType": "bytes32",
          "name": "documentHash",
          "type": "bytes32"
        },
        {
          "indexed": true,
          "internalType": "address",
          "name": "owner",
          "type": "address"
        },
        {
          "indexed": true,
          "internalType": "address",
          "name": "revokedFrom",
          "type": "address"
        }
      ],
      "name": "AccessRevoked",
      "type": "event"
    },
    {
      "anonymous": false,
      "inputs": [
        {
          "indexed": true,
          "internalType": "bytes32",
          "name": "documentHash",
          "type": "bytes32"
        },
        {
          "indexed": true,
          "internalType": "address",
          "name": "owner",
          "type": "address"
        },
        {
          "indexed": false,
          "internalType": "string",
          "name": "ipfsCID",
          "type": "string"
        },
        {
          "indexed": false,
          "internalType": "uint256",
          "name": "timestamp",
          "type": "uint256"
        }
      ],
      "name": "DocumentStored",
      "type": "event"
    },
    {
      "inputs": [
        {
          "internalType": "bytes32",
          "name": "",
          "type": "bytes32"
        }
      ],
      "name": "documents",
      "outputs": [
        {
          "internalType": "string",
          "name": "ipfsCID",
          "type": "string"
        },
        {
          "internalType": "address",
          "name": "owner",
          "type": "address"
        },
        {
          "internalType": "uint256",
          "name": "timestamp",
          "type": "uint256"
        },
        {
          "internalType": "string",
          "name": "fileName",
          "type": "string"
        }
      ],
      "stateMutability": "view",
      "type": "function"
    },
    {
      "inputs": [
        {
          "internalType": "bytes32",
          "name": "_documentHash",
          "type": "bytes32"
        }
      ],
      "name": "getDocument",
      "outputs": [
        {
          "internalType": "string",
          "name": "ipfsCID",
          "type": "string"
        },
        {
          "internalType": "address",
          "name": "owner",
          "type": "address"
        },
        {
          "internalType": "uint256",
          "name": "timestamp",
          "type": "uint256"
        },
        {
          "internalType": "string",
          "name": "fileName",
          "type": "string"
        }
      ],
      "stateMutability": "view",
      "type": "function"
    },
    {
      "inputs": [
        {
          "internalType": "address",
          "name": "_owner",
          "type": "address"
        },
        {
          "internalType": "uint256",
          "name": "_index",
          "type": "uint256"
        }
      ],
      "name": "getDocumentByIndex",
      "outputs": [
        {
          "internalType": "bytes32",
          "name": "documentHash",
          "type": "bytes32"
        },
        {
          "internalType": "string",
          "name": "ipfsCID",
          "type": "string"
        },
        {
          "internalType": "uint256",
          "name": "timestamp",
          "type": "uint256"
        },
        {
          "internalType": "string",
          "name": "fileName",
          "type": "string"
        }
      ],
      "stateMutability": "view",
      "type": "function"
    },
    {
      "inputs": [
        {
          "internalType": "bytes32",
          "name": "_documentHash",
          "type": "bytes32"
        }
      ],
      "name": "getDocumentMetadata",
      "outputs": [
        {
          "internalType": "address",
          "name": "owner",
          "type": "address"
        },
        {
          "internalType": "uint256",
          "name": "timestamp",
          "type": "uint256"
        },
        {
          "internalType": "string",
          "name": "fileName",
          "type": "string"
        }
      ],
      "stateMutability": "view",
      "type": "function"
    },
    {
      "inputs": [
        {
          "internalType": "address",
          "name": "_user",
          "type": "address"
        }
      ],
      "name": "getUserDocumentCount",
      "outputs": [
        {
          "internalType": "uint256",
          "name": "",
          "type": "uint256"
        }
      ],
      "stateMutability": "view",
      "type": "function"
    },
    {
      "inputs": [
        {
          "internalType": "address",
          "name": "_user",
          "type": "address"
        }
      ],
      "name": "getUserDocuments",
      "outputs": [
        {
          "internalType": "bytes32[]",
          "name": "",
          "type": "bytes32[]"
        }
      ],
      "stateMutability": "view",
      "type": "function"
    },
    {
      "inputs": [
        {
          "internalType": "bytes32",
          "name": "_documentHash",
          "type": "bytes32"
        },
        {
          "internalType": "address",
          "name": "_user",
          "type": "address"
        }
      ],
      "name": "grantAccess",
      "outputs": [],
      "stateMutability": "nonpayable",
      "type": "function"
    },
    {
      "inputs": [
        {
          "internalType": "bytes32",
          "name": "_documentHash",
          "type": "bytes32"
        },
        {
          "internalType": "address",
          "name": "_user",
          "type": "address"
        }
      ],
      "name": "hasAccess",
      "outputs": [
        {
          "internalType": "bool",
          "name": "",
          "type": "bool"
        }
      ],
      "stateMutability": "view",
      "type": "function"
    },
    {
      "inputs": [
        {
          "internalType": "bytes32",
          "name": "_documentHash",
          "type": "bytes32"
        },
        {
          "internalType": "address",
          "name": "_user",
          "type": "address"
        }
      ],
      "name": "revokeAccess",
      "outputs": [],
      "stateMutability": "nonpayable",
      "type": "function"
    },
    {
      "inputs": [
        {
          "internalType": "bytes32",
          "name": "_documentHash",
          "type": "bytes32"
        },
        {
          "internalType": "string",
          "name": "_ipfsCID",
          "type": "string"
        },
        {
          "internalType": "string",
          "name": "_fileName",
          "type": "string"
        }
      ],
      "name": "storeDocument",
      "outputs": [],
      "stateMutability": "nonpayable",
      "type": "function"
    },
    {
      "inputs": [
        {
          "internalType": "address",
          "name": "",
          "type": "address"
        },
        {
          "internalType": "uint256",
          "name": "",
          "type": "uint256"
        }
      ],
      "name": "userDocuments",
      "outputs": [
        {
          "internalType": "bytes32",
          "name": "",
          "type": "bytes32"
        }
      ],
      "stateMutability": "view",
      "type": "function"
    },
    {
      "inputs": [
        {
          "internalType": "bytes32",
          "name": "_documentHash",
          "type": "bytes32"
        }
      ],
      "name": "verifyDocument",
      "outputs": [
        {
          "internalType": "bool",
          "name": "",
          "type": "bool"
        }
      ],
      "stateMutability": "view",
      "type": "function"
    }
  ],
  "bytecode": "0x608060405234801561001057600080fd5b506112ab806100206000396000f3fe608060405234801561001057600080fd5b50600436106100b45760003560e01c80638d53b208116100715780638d53b2081461019b57806390a4b162146101ae57806395e4856f146101ce578063b10d6b41146101f7578063c85cbe501461020a578063fe35089f1461022d57600080fd5b80632b2805db146100b957806340554c3a146100e5578063577a1b92146100fa57806383177db31461011b5780638553139c14610166578063863d809114610179575b600080fd5b6100cc6100c7366004610dda565b610252565b6040516100dc9493929190610e39565b60405180910390f35b6100f86100f3366004610e9b565b610398565b005b61010d610108366004610ec7565b610530565b6040519081526020016100dc565b610156610129366004610e9b565b6000828152602081815260408083206001600160a01b038516845260040190915290205460ff1692915050565b60405190151581526020016100dc565b6100f8610174366004610f94565b610561565b61018c610187366004610dda565b61071c565b6040516100dc93929190611001565b6100f86101a9366004610e9b565b610807565b6101c16101bc366004611031565b61099d565b6040516100dc9190611053565b61010d6101dc366004611031565b6001600160a01b031660009081526001602052604090205490565b6100cc610205366004610dda565b610a09565b61021d610218366004610ec7565b610bf0565b6040516100dc9493929190611097565b61015661023b366004610dda565b600090815260208190526040902060020154151590565b60006020819052908152604090208054819061026d906110c8565b80601f0160208091040260200160405190810160405280929190818152602001828054610299906110c8565b80156102e65780601f106102bb576101008083540402835291602001916102e6565b820191906000526020600020905b8154815290600101906020018083116102c957829003601f168201915b505050506001830154600284015460038501805494956001600160a01b039093169491935090610315906110c8565b80601f0160208091040260200160405190810160405280929190818152602001828054610341906110c8565b801561038e5780601f106103635761010080835404028352916020019161038e565b820191906000526020600020905b81548152906001019060200180831161037157829003601f168201915b5050505050905084565b600082815260208190526040902060018101546001600160a01b031633146104075760405162461bcd60e51b815260206004820152601b60248201527f4f6e6c79206f776e65722063616e206772616e7420616363657373000000000060448201526064015b60405180910390fd5b806002015460000361042b5760405162461bcd60e51b81526004016103fe90611102565b6001600160a01b0382166104785760405162461bcd60e51b8152602060048201526014602482015273496e76616c69642075736572206164647265737360601b60448201526064016103fe565b6001600160a01b038216600090815260048201602052604090205460ff16156104dc5760405162461bcd60e51b81526020600482015260166024820152751058d8d95cdcc8185b1c9958591e4819dc985b9d195960521b60448201526064016103fe565b6001600160a01b0382166000818152600483016020526040808220805460ff1916600117905551339186917f7aeffe35f64b55a7c424c5fccc3fba0f3ac4ebd764cc737855b8734834458f2b9190a4505050565b6001602052816000526040600020818154811061054c57600080fd5b90600052602060002001600091509150505481565b60008251116105a65760405162461bcd60e51b815260206004820152601160248201527012541194c810d251081c995c5d5a5c9959607a1b60448201526064016103fe565b60008151116105ec5760405162461bcd60e51b8152602060048201526012602482015271119a5b19481b985b59481c995c5d5a5c995960721b60448201526064016103fe565b6000838152602081905260409020600281015415801561065457600180830180546001600160a01b0319163390811790915560009081526004840160209081526040808320805460ff19168517905583825282208054938401815582529020018590556106b0565b60018201546001600160a01b031633146106b05760405162461bcd60e51b815260206004820152601e60248201527f4f6e6c79206f776e65722063616e2075706461746520646f63756d656e74000060448201526064016103fe565b816106bb858261117d565b50426002830155600382016106d0848261117d565b50336001600160a01b0316857f71b9efb948fb6f49ebb757bc4bc3b4b9a614cb11acce9f9e717e24376df5a293864260405161070d92919061123d565b60405180910390a35050505050565b60008181526020819052604081206002810154829160609183036107525760405162461bcd60e51b81526004016103fe90611102565b600181015460028201546003830180546001600160a01b03909316928190610779906110c8565b80601f01602080910402602001604051908101604052809291908181526020018280546107a5906110c8565b80156107f25780601f106107c7576101008083540402835291602001916107f2565b820191906000526020600020905b8154815290600101906020018083116107d557829003601f168201915b50505050509050935093509350509193909250565b600082815260208190526040902060018101546001600160a01b031633146108715760405162461bcd60e51b815260206004820152601c60248201527f4f6e6c79206f776e65722063616e207265766f6b65206163636573730000000060448201526064016103fe565b80600201546000036108955760405162461bcd60e51b81526004016103fe90611102565b6001600160a01b038216600090815260048201602052604090205460ff166108f45760405162461bcd60e51b81526020600482015260126024820152711058d8d95cdcc81b9bdd0819dc985b9d195960721b60448201526064016103fe565b336001600160a01b0383160361094c5760405162461bcd60e51b815260206004820152601860248201527f43616e6e6f74207265766f6b65206f776e20616363657373000000000000000060448201526064016103fe565b6001600160a01b0382166000818152600483016020526040808220805460ff1916905551339186917ffab19bdeacf1ea13315b1da3f79a3403fe4f16793b6a03eeff9e0bbbea24fe5f9190a4505050565b6001600160a01b0381166000908152600160209081526040918290208054835181840281018401909452808452606093928301828280156109fd57602002820191906000526020600020905b8154815260200190600101908083116109e9575b50505050509050919050565b600081815260208190526040812060028101546060929182918491908303610a435760405162461bcd60e51b81526004016103fe90611102565b33600090815260048201602052604090205460ff1680610a6f575060018101546001600160a01b031633145b610aab5760405162461bcd60e51b815260206004820152600d60248201526c1058d8d95cdcc819195b9a5959609a1b60448201526064016103fe565b60018101546002820154825483926001600160a01b0316919060038401908490610ad4906110c8565b80601f0160208091040260200160405190810160405280929190818152602001828054610b00906110c8565b8015610b4d5780601f10610b2257610100808354040283529160200191610b4d565b820191906000526020600020905b815481529060010190602001808311610b3057829003601f168201915b50505050509350808054610b60906110c8565b80601f0160208091040260200160405190810160405280929190818152602001828054610b8c906110c8565b8015610bd95780601f10610bae57610100808354040283529160200191610bd9565b820191906000526020600020905b815481529060010190602001808311610bbc57829003601f168201915b505050505090509450945094509450509193509193565b6001600160a01b038216600090815260016020526040812054606090829082908510610c545760405162461bcd60e51b8152602060048201526013602482015272496e646578206f7574206f6620626f756e647360681b60448201526064016103fe565b6001600160a01b0386166000908152600160205260408120805487908110610c7e57610c7e61125f565b90600052602060002001549050600080600083815260200190815260200160002090508181600001826002015483600301828054610cbb906110c8565b80601f0160208091040260200160405190810160405280929190818152602001828054610ce7906110c8565b8015610d345780601f10610d0957610100808354040283529160200191610d34565b820191906000526020600020905b815481529060010190602001808311610d1757829003601f168201915b50505050509250808054610d47906110c8565b80601f0160208091040260200160405190810160405280929190818152602001828054610d73906110c8565b8015610dc05780601f10610d9557610100808354040283529160200191610dc0565b820191906000526020600020905b815481529060010190602001808311610da357829003601f168201915b505050505090509550955095509550505092959194509250565b600060208284031215610dec57600080fd5b5035919050565b6000815180845260005b81811015610e1957602081850181015186830182015201610dfd565b506000602082860101526020601f19601f83011685010191505092915050565b608081526000610e4c6080830187610df3565b6001600160a01b0386166020840152604083018590528281036060840152610e748185610df3565b979650505050505050565b80356001600160a01b0381168114610e9657600080fd5b919050565b60008060408385031215610eae57600080fd5b82359150610ebe60208401610e7f565b90509250929050565b60008060408385031215610eda57600080fd5b610ee383610e7f565b946020939093013593505050565b634e487b7160e01b600052604160045260246000fd5b600082601f830112610f1857600080fd5b813567ffffffffffffffff80821115610f3357610f33610ef1565b604051601f8301601f19908116603f01168101908282118183101715610f5b57610f5b610ef1565b81604052838152866020858801011115610f7457600080fd5b836020870160208301376000602085830101528094505050505092915050565b600080600060608486031215610fa957600080fd5b83359250602084013567ffffffffffffffff80821115610fc857600080fd5b610fd487838801610f07565b93506040860135915080821115610fea57600080fd5b50610ff786828701610f07565b9150509250925092565b60018060a01b03841681528260208201526060604082015260006110286060830184610df3565b95945050505050565b60006020828403121561104357600080fd5b61104c82610e7f565b9392505050565b6020808252825182820181905260009190848201906040850190845b8181101561108b5783518352928401929184019160010161106f565b50909695505050505050565b8481526080602082015260006110b06080830186610df3565b8460408401528281036060840152610e748185610df3565b600181811c908216806110dc57607f821691505b6020821081036110fc57634e487b7160e01b600052602260045260246000fd5b50919050565b602080825260129082015271111bd8dd5b595b9d081b9bdd08199bdd5b9960721b604082015260600190565b601f82111561117857600081815260208120601f850160051c810160208610156111555750805b601f850160051c820191505b8181101561117457828155600101611161565b5050505b505050565b815167ffffffffffffffff81111561119757611197610ef1565b6111ab816111a584546110c8565b8461112e565b602080601f8311600181146111e057600084156111c85750858301515b600019600386901b1c1916600185901b178555611174565b600085815260208120601f198616915b8281101561120f578886015182559484019460019091019084016111f0565b508582101561122d5787850151600019600388901b60f8161c191681555b5050505050600190811b01905550565b6040815260006112506040830185610df3565b90508260208301529392505050565b634e487b7160e01b600052603260045260246000fdfea2646970667358221220f0f5b938d782f49f28ca72fb362d84457858ea54fe8e9c407183df9e4cea94ae64736f6c63430008130033",
  "linkReferences": {},
  "deployedLinkReferences": {}
}